{
  "contractName": "Crowdsale",
  "abi": [
    {
      "constant": true,
      "inputs": [],
      "name": "deadline",
      "outputs": [
        {
          "name": "",
          "type": "uint256"
        }
      ],
      "payable": false,
      "stateMutability": "view",
      "type": "function"
    },
    {
      "constant": true,
      "inputs": [],
      "name": "beneficiary",
      "outputs": [
        {
          "name": "",
          "type": "address"
        }
      ],
      "payable": false,
      "stateMutability": "view",
      "type": "function"
    },
    {
      "constant": true,
      "inputs": [],
      "name": "tokenReward",
      "outputs": [
        {
          "name": "",
          "type": "address"
        }
      ],
      "payable": false,
      "stateMutability": "view",
      "type": "function"
    },
    {
      "constant": true,
      "inputs": [
        {
          "name": "",
          "type": "address"
        }
      ],
      "name": "balanceOf",
      "outputs": [
        {
          "name": "",
          "type": "uint256"
        }
      ],
      "payable": false,
      "stateMutability": "view",
      "type": "function"
    },
    {
      "constant": true,
      "inputs": [],
      "name": "amountRaised",
      "outputs": [
        {
          "name": "",
          "type": "uint256"
        }
      ],
      "payable": false,
      "stateMutability": "view",
      "type": "function"
    },
    {
      "constant": true,
      "inputs": [],
      "name": "tokenBalance",
      "outputs": [
        {
          "name": "",
          "type": "uint256"
        }
      ],
      "payable": false,
      "stateMutability": "view",
      "type": "function"
    },
    {
      "constant": false,
      "inputs": [],
      "name": "safeWithdrawal",
      "outputs": [],
      "payable": false,
      "stateMutability": "nonpayable",
      "type": "function"
    },
    {
      "inputs": [],
      "payable": false,
      "stateMutability": "nonpayable",
      "type": "constructor"
    },
    {
      "payable": true,
      "stateMutability": "payable",
      "type": "fallback"
    },
    {
      "anonymous": false,
      "inputs": [
        {
          "indexed": false,
          "name": "backer",
          "type": "address"
        },
        {
          "indexed": false,
          "name": "amount",
          "type": "uint256"
        },
        {
          "indexed": false,
          "name": "isContribution",
          "type": "bool"
        }
      ],
      "name": "FundTransfer",
      "type": "event"
    }
  ],
  "bytecode": "0x6060604052341561000f57600080fd5b624c4b4060018190555073e418b86f4be88d5fc42bedab4b1e32591c0b8fe66000806101000a81548173ffffffffffffffffffffffffffffffffffffffff021916908373ffffffffffffffffffffffffffffffffffffffff160217905550426006819055506103846006540160038190555061011860048190555073dbfacbe6f911196a9e7ec5a22a8a64b43831423f600860006101000a81548173ffffffffffffffffffffffffffffffffffffffff021916908373ffffffffffffffffffffffffffffffffffffffff16021790555061092c806100ee6000396000f300606060405260043610610083576000357c0100000000000000000000000000000000000000000000000000000000900463ffffffff16806329dcb0cf146103b657806338af3eed146103df5780636e66f6e91461043457806370a08231146104895780637b3e5e7b146104d65780639e1a4d19146104ff578063fd6b7ef814610528575b6000600354421115156103b35734905080600960003373ffffffffffffffffffffffffffffffffffffffff1673ffffffffffffffffffffffffffffffffffffffff168152602001908152602001600020600082825401925050819055508060026000828254019250508190555061271060058190555061010d6704db73254763000060045461053d565b6007819055506005546802086ac3510526000081151561012957fe5b04811015801561014e575060055468047fdb3c3f456c000081151561014a57fe5b0481105b156101715761016a6101636064600754610558565b606e61053d565b6007819055505b6005546804be4e7267b6ae000081151561018757fe5b0481101580156101ac57506005546808ffb6787e8ad800008115156101a857fe5b0481105b156101cf576101c86101c16064600754610558565b607361053d565b6007819055505b60055468097c9ce4cf6d5c00008115156101e557fe5b048110151561020c576102056101fe6064600754610558565b607861053d565b6007819055505b61021a60075460055461053d565b6007819055506102376001546102328360075461053d565b61058b565b6001819055506000600154101561024d57600080fd5b600860009054906101000a900473ffffffffffffffffffffffffffffffffffffffff1673ffffffffffffffffffffffffffffffffffffffff1663a9059cbb336102a2670de0b6b3a7640000850260075461053d565b6040518363ffffffff167c0100000000000000000000000000000000000000000000000000000000028152600401808373ffffffffffffffffffffffffffffffffffffffff1673ffffffffffffffffffffffffffffffffffffffff16815260200182815260200192505050600060405180830381600087803b151561032657600080fd5b6102c65a03f1151561033757600080fd5b5050507fe842aea7a5f1b01049d752008c53c52890b1a6daf660cf39e8eec506112bbdf633826001604051808473ffffffffffffffffffffffffffffffffffffffff1673ffffffffffffffffffffffffffffffffffffffff16815260200183815260200182151515158152602001935050505060405180910390a15b50005b34156103c157600080fd5b6103c96105a4565b6040518082815260200191505060405180910390f35b34156103ea57600080fd5b6103f26105aa565b604051808273ffffffffffffffffffffffffffffffffffffffff1673ffffffffffffffffffffffffffffffffffffffff16815260200191505060405180910390f35b341561043f57600080fd5b6104476105cf565b604051808273ffffffffffffffffffffffffffffffffffffffff1673ffffffffffffffffffffffffffffffffffffffff16815260200191505060405180910390f35b341561049457600080fd5b6104c0600480803573ffffffffffffffffffffffffffffffffffffffff169060200190919050506105f5565b6040518082815260200191505060405180910390f35b34156104e157600080fd5b6104e961060d565b6040518082815260200191505060405180910390f35b341561050a57600080fd5b610512610613565b6040518082815260200191505060405180910390f35b341561053357600080fd5b61053b610619565b005b600080828481151561054b57fe5b0490508091505092915050565b60008082840290506000841480610579575082848281151561057657fe5b04145b151561058157fe5b8091505092915050565b600082821115151561059957fe5b818303905092915050565b60035481565b6000809054906101000a900473ffffffffffffffffffffffffffffffffffffffff1681565b600860009054906101000a900473ffffffffffffffffffffffffffffffffffffffff1681565b60096020528060005260406000206000915090505481565b60025481565b60015481565b600354421015156108fe576000809054906101000a900473ffffffffffffffffffffffffffffffffffffffff1673ffffffffffffffffffffffffffffffffffffffff166108fc6002549081150290604051600060405180830381858888f19350505050156108fd577fe842aea7a5f1b01049d752008c53c52890b1a6daf660cf39e8eec506112bbdf66000809054906101000a900473ffffffffffffffffffffffffffffffffffffffff166002546000604051808473ffffffffffffffffffffffffffffffffffffffff1673ffffffffffffffffffffffffffffffffffffffff16815260200183815260200182151515158152602001935050505060405180910390a1600860009054906101000a900473ffffffffffffffffffffffffffffffffffffffff1673ffffffffffffffffffffffffffffffffffffffff1663a9059cbb6000809054906101000a900473ffffffffffffffffffffffffffffffffffffffff16600860009054906101000a900473ffffffffffffffffffffffffffffffffffffffff1673ffffffffffffffffffffffffffffffffffffffff166370a08231306000604051602001526040518263ffffffff167c0100000000000000000000000000000000000000000000000000000000028152600401808273ffffffffffffffffffffffffffffffffffffffff1673ffffffffffffffffffffffffffffffffffffffff168152602001915050602060405180830381600087803b151561084157600080fd5b6102c65a03f1151561085257600080fd5b505050604051805190506040518363ffffffff167c0100000000000000000000000000000000000000000000000000000000028152600401808373ffffffffffffffffffffffffffffffffffffffff1673ffffffffffffffffffffffffffffffffffffffff16815260200182815260200192505050600060405180830381600087803b15156108e057600080fd5b6102c65a03f115156108f157600080fd5b50505060006001819055505b5b5600a165627a7a72305820d9047c96d49bd8317481ec3f109d27f0aa6ba04e9e44a156ae920eaa0225e1df0029",
  "source": "pragma solidity ^0.4.13;\r\n\r\nlibrary SafeMath {\r\n  function mul(uint a, uint b) internal returns (uint) {\r\n    uint c = a * b;\r\n    assert(a == 0 || c / a == b);\r\n    return c;\r\n  }\r\n\r\n  function div(uint a, uint b) internal returns (uint) {\r\n    // assert(b > 0); // Solidity automatically throws when dividing by 0\r\n    uint c = a / b;\r\n    // assert(a == b * c + a % b); // There is no case in which this doesn't hold\r\n    return c;\r\n  }\r\n\r\n  function sub(uint a, uint b) internal returns (uint) {\r\n    assert(b <= a);\r\n    return a - b;\r\n  }\r\n\r\n  function add(uint a, uint b) internal returns (uint) {\r\n    uint c = a + b;\r\n    assert(c >= a);\r\n    return c;\r\n  }\r\n\r\n  function max64(uint64 a, uint64 b) internal constant returns (uint64) {\r\n    return a >= b ? a : b;\r\n  }\r\n\r\n  function min64(uint64 a, uint64 b) internal constant returns (uint64) {\r\n    return a < b ? a : b;\r\n  }\r\n\r\n  function max256(uint256 a, uint256 b) internal constant returns (uint256) {\r\n    return a >= b ? a : b;\r\n  }\r\n\r\n  function min256(uint256 a, uint256 b) internal constant returns (uint256) {\r\n    return a < b ? a : b;\r\n  }\r\n}\r\n\r\ninterface token {\r\n    function transfer(address receiver, uint amount);\r\n    function balanceOf(address) returns (uint256);\r\n}\r\n\r\ncontract Crowdsale {\r\n    address public beneficiary;\r\n    uint public tokenBalance;\r\n    uint public amountRaised;\r\n    uint public deadline;\r\n    uint dollar_exchange;\r\n    uint test_factor;\r\n    uint start_time;\r\n    uint price;\r\n    token public tokenReward;\r\n    mapping(address => uint256) public balanceOf;\r\n    event FundTransfer(address backer, uint amount, bool isContribution);\r\n\r\n    /**\r\n     * Constrctor function\r\n     *\r\n     * Setup the owner\r\n     */\r\n    function Crowdsale() {\r\n        tokenBalance = 5000000;  \r\n        beneficiary = 0xE418b86F4Be88D5fC42bEdaB4B1E32591c0B8fE6;   //CHANGE\r\n        start_time = now;\r\n        deadline = start_time + 15 * 1 minutes;     //CHANGE\r\n        dollar_exchange = 280;//CHANGE\r\n        tokenReward = token(0xDbfacBE6F911196a9E7EC5A22a8a64B43831423F);  //chozun coin address    //CHANGE\r\n    }\r\n\r\n    /**\r\n     * Fallback function\r\n    **/\r\n\r\n    function () payable beforeDeadline {\r\n\r\n        uint amount = msg.value;\r\n        balanceOf[msg.sender] += amount;\r\n        amountRaised += amount;\r\n        test_factor = 10000;    //CHANGE\r\n        price = SafeMath.div(0.35 * 1 ether, dollar_exchange);\r\n        if (amount >= 37.5 ether /test_factor && amount < 83 ether /test_factor) {price = SafeMath.div(SafeMath.mul(100, price), 110);}  //CHANGE - remove test factor\r\n        if (amount >= 87.5 ether /test_factor && amount < 166 ether /test_factor) {price = SafeMath.div(SafeMath.mul(100, price), 115);}  //CHANGE - remove test factor\r\n        if (amount >= 175 ether /test_factor) {price = SafeMath.div(SafeMath.mul(100, price), 120);}//CHANGE - remove test factor\r\n        price = SafeMath.div(price, test_factor); // for testing    //CHANGE - remove test factor\r\n        tokenBalance = SafeMath.sub(tokenBalance, SafeMath.div(amount, price));\r\n        if (tokenBalance < 0 ) { revert(); }\r\n        tokenReward.transfer(msg.sender, SafeMath.div(amount * 1 ether, price));\r\n        FundTransfer(msg.sender, amount, true);\r\n        \r\n    }\r\n\r\n    modifier afterDeadline() { if (now >= deadline) _; }\r\n    modifier beforeDeadline() { if (now <= deadline) _; }\r\n\r\n    function safeWithdrawal() afterDeadline {\r\n\r\n        if (beneficiary.send(amountRaised)) {\r\n            FundTransfer(beneficiary, amountRaised, false);\r\n            tokenReward.transfer(beneficiary, tokenReward.balanceOf(this));\r\n            tokenBalance = 0;\r\n        }\r\n    }\r\n}\r\n\r\n\r\n",
  "sourcePath": "C:\\Users\\Louis\\Documents\\ethereum_dev\\truffle\\test\\contracts\\Crowdsale.sol",
  "compiler": {
    "name": "solc",
    "version": "0.4.18+commit.9cf6e910.Emscripten.clang"
  },
  "schemaVersion": "2.0.0",
  "updatedAt": "2018-04-05T05:02:23.606Z"
}