{
  "contractName": "Crowdsale",
  "abi": [
    {
      "constant": true,
      "inputs": [],
      "name": "deadline",
      "outputs": [
        {
          "name": "",
          "type": "uint256"
        }
      ],
      "payable": false,
      "stateMutability": "view",
      "type": "function"
    },
    {
      "constant": true,
      "inputs": [],
      "name": "beneficiary",
      "outputs": [
        {
          "name": "",
          "type": "address"
        }
      ],
      "payable": false,
      "stateMutability": "view",
      "type": "function"
    },
    {
      "constant": true,
      "inputs": [
        {
          "name": "",
          "type": "uint256"
        }
      ],
      "name": "contributors",
      "outputs": [
        {
          "name": "",
          "type": "address"
        }
      ],
      "payable": false,
      "stateMutability": "view",
      "type": "function"
    },
    {
      "constant": true,
      "inputs": [],
      "name": "paused",
      "outputs": [
        {
          "name": "",
          "type": "bool"
        }
      ],
      "payable": false,
      "stateMutability": "view",
      "type": "function"
    },
    {
      "constant": true,
      "inputs": [],
      "name": "tokenReward",
      "outputs": [
        {
          "name": "",
          "type": "address"
        }
      ],
      "payable": false,
      "stateMutability": "view",
      "type": "function"
    },
    {
      "constant": true,
      "inputs": [
        {
          "name": "",
          "type": "address"
        }
      ],
      "name": "balanceOf",
      "outputs": [
        {
          "name": "",
          "type": "uint256"
        }
      ],
      "payable": false,
      "stateMutability": "view",
      "type": "function"
    },
    {
      "constant": true,
      "inputs": [],
      "name": "amountRaised",
      "outputs": [
        {
          "name": "",
          "type": "uint256"
        }
      ],
      "payable": false,
      "stateMutability": "view",
      "type": "function"
    },
    {
      "constant": true,
      "inputs": [],
      "name": "tokenBalance",
      "outputs": [
        {
          "name": "",
          "type": "uint256"
        }
      ],
      "payable": false,
      "stateMutability": "view",
      "type": "function"
    },
    {
      "constant": true,
      "inputs": [],
      "name": "contlength",
      "outputs": [
        {
          "name": "",
          "type": "address"
        }
      ],
      "payable": false,
      "stateMutability": "view",
      "type": "function"
    },
    {
      "inputs": [
        {
          "name": "_token",
          "type": "address"
        }
      ],
      "payable": false,
      "stateMutability": "nonpayable",
      "type": "constructor"
    },
    {
      "payable": true,
      "stateMutability": "payable",
      "type": "fallback"
    },
    {
      "anonymous": false,
      "inputs": [
        {
          "indexed": false,
          "name": "backer",
          "type": "address"
        },
        {
          "indexed": false,
          "name": "amount",
          "type": "uint256"
        },
        {
          "indexed": false,
          "name": "isContribution",
          "type": "bool"
        }
      ],
      "name": "FundTransfer",
      "type": "event"
    },
    {
      "constant": false,
      "inputs": [],
      "name": "tokenPayout",
      "outputs": [],
      "payable": false,
      "stateMutability": "nonpayable",
      "type": "function"
    },
    {
      "constant": false,
      "inputs": [],
      "name": "safeWithdrawal",
      "outputs": [],
      "payable": false,
      "stateMutability": "nonpayable",
      "type": "function"
    },
    {
      "constant": false,
      "inputs": [],
      "name": "pause",
      "outputs": [],
      "payable": false,
      "stateMutability": "nonpayable",
      "type": "function"
    },
    {
      "constant": false,
      "inputs": [],
      "name": "unPause",
      "outputs": [],
      "payable": false,
      "stateMutability": "nonpayable",
      "type": "function"
    }
  ],
  "bytecode": "0x6060604052341561000f57600080fd5b6040516020806110cb83398101604052808051906020019091905050624c4b4060028190555073c5fdf4076b8f3a5357c5e395ab970b5b54098fef6000806101000a81548173ffffffffffffffffffffffffffffffffffffffff021916908373ffffffffffffffffffffffffffffffffffffffff160217905550426006819055506102586006540160048190555061011860058190555080600860006101000a81548173ffffffffffffffffffffffffffffffffffffffff021916908373ffffffffffffffffffffffffffffffffffffffff16021790555073f17f52151ebef6c7334fad080c5704d77216b732600160006101000a81548173ffffffffffffffffffffffffffffffffffffffff021916908373ffffffffffffffffffffffffffffffffffffffff1602179055506000600b60006101000a81548160ff02191690831515021790555050610f64806101676000396000f3006060604052600436106100c5576000357c0100000000000000000000000000000000000000000000000000000000900463ffffffff16806329dcb0cf1461033157806338af3eed1461035a5780633cb5d100146103af5780635c975abb146104125780636e66f6e91461043f57806370a08231146104945780637b3e5e7b146104e15780638456cb591461050a57806387b551b51461051f5780639e1a4d1914610534578063c885e92d1461055d578063f7b188a5146105b2578063fd6b7ef8146105c7575b60006004544211151561032e5760001515600b60009054906101000a900460ff161515141561032d5734905080600960003373ffffffffffffffffffffffffffffffffffffffff1673ffffffffffffffffffffffffffffffffffffffff16815260200190815260200160002060008282540192505081905550806003600082825401925050819055506101626704db7325476300006005546105dc565b6007819055506802086ac351052600008110158015610189575068047fdb3c3f456c000081105b156101ac576101a561019e60646007546105f7565b606e6105dc565b6007819055505b6804be4e7267b6ae000081101580156101cd57506808ffb6787e8ad8000081105b156101f0576101e96101e260646007546105f7565b60736105dc565b6007819055505b68097c9ce4cf6d5c0000811015156102205761021961021260646007546105f7565b60786105dc565b6007819055505b610237600254610232836007546105dc565b61062a565b6002819055506000600254101561024d57600080fd5b600a80548060010182816102619190610ee7565b9160005260206000209001600033909190916101000a81548173ffffffffffffffffffffffffffffffffffffffff021916908373ffffffffffffffffffffffffffffffffffffffff16021790555050600a60008154811015156102c057fe5b906000526020600020900160009054906101000a900473ffffffffffffffffffffffffffffffffffffffff16600b60016101000a81548173ffffffffffffffffffffffffffffffffffffffff021916908373ffffffffffffffffffffffffffffffffffffffff1602179055505b5b50005b341561033c57600080fd5b610344610643565b6040518082815260200191505060405180910390f35b341561036557600080fd5b61036d610649565b604051808273ffffffffffffffffffffffffffffffffffffffff1673ffffffffffffffffffffffffffffffffffffffff16815260200191505060405180910390f35b34156103ba57600080fd5b6103d0600480803590602001909190505061066e565b604051808273ffffffffffffffffffffffffffffffffffffffff1673ffffffffffffffffffffffffffffffffffffffff16815260200191505060405180910390f35b341561041d57600080fd5b6104256106ad565b604051808215151515815260200191505060405180910390f35b341561044a57600080fd5b6104526106c0565b604051808273ffffffffffffffffffffffffffffffffffffffff1673ffffffffffffffffffffffffffffffffffffffff16815260200191505060405180910390f35b341561049f57600080fd5b6104cb600480803573ffffffffffffffffffffffffffffffffffffffff169060200190919050506106e6565b6040518082815260200191505060405180910390f35b34156104ec57600080fd5b6104f46106fe565b6040518082815260200191505060405180910390f35b341561051557600080fd5b61051d610704565b005b341561052a57600080fd5b610532610795565b005b341561053f57600080fd5b610547610ccc565b6040518082815260200191505060405180910390f35b341561056857600080fd5b610570610cd2565b604051808273ffffffffffffffffffffffffffffffffffffffff1673ffffffffffffffffffffffffffffffffffffffff16815260200191505060405180910390f35b34156105bd57600080fd5b6105c5610cf8565b005b34156105d257600080fd5b6105da610d89565b005b60008082848115156105ea57fe5b0490508091505092915050565b60008082840290506000841480610618575082848281151561061557fe5b04145b151561062057fe5b8091505092915050565b600082821115151561063857fe5b818303905092915050565b60045481565b6000809054906101000a900473ffffffffffffffffffffffffffffffffffffffff1681565b600a8181548110151561067d57fe5b90600052602060002090016000915054906101000a900473ffffffffffffffffffffffffffffffffffffffff1681565b600b60009054906101000a900460ff1681565b600860009054906101000a900473ffffffffffffffffffffffffffffffffffffffff1681565b60096020528060005260406000206000915090505481565b60035481565b60001515600b60009054906101000a900460ff161515141561079357600160009054906101000a900473ffffffffffffffffffffffffffffffffffffffff1673ffffffffffffffffffffffffffffffffffffffff163373ffffffffffffffffffffffffffffffffffffffff161415610792576001600b60006101000a81548160ff0219169083151502179055505b5b565b600060045442101515610cc957600160009054906101000a900473ffffffffffffffffffffffffffffffffffffffff1673ffffffffffffffffffffffffffffffffffffffff163373ffffffffffffffffffffffffffffffffffffffff161415610cc85761080c6704db7325476300006005546105dc565b600781905550600090505b600a80549050811015610af857600860009054906101000a900473ffffffffffffffffffffffffffffffffffffffff1673ffffffffffffffffffffffffffffffffffffffff1663a9059cbb600a8381548110151561087157fe5b906000526020600020900160009054906101000a900473ffffffffffffffffffffffffffffffffffffffff1661092c670de0b6b3a764000060096000600a888154811015156108bc57fe5b906000526020600020900160009054906101000a900473ffffffffffffffffffffffffffffffffffffffff1673ffffffffffffffffffffffffffffffffffffffff1673ffffffffffffffffffffffffffffffffffffffff16815260200190815260200160002054026007546105dc565b6040518363ffffffff167c0100000000000000000000000000000000000000000000000000000000028152600401808373ffffffffffffffffffffffffffffffffffffffff1673ffffffffffffffffffffffffffffffffffffffff16815260200182815260200192505050600060405180830381600087803b15156109b057600080fd5b5af115156109bd57600080fd5b5050507fe842aea7a5f1b01049d752008c53c52890b1a6daf660cf39e8eec506112bbdf6600a828154811015156109f057fe5b906000526020600020900160009054906101000a900473ffffffffffffffffffffffffffffffffffffffff1660096000600a85815481101515610a2f57fe5b906000526020600020900160009054906101000a900473ffffffffffffffffffffffffffffffffffffffff1673ffffffffffffffffffffffffffffffffffffffff1673ffffffffffffffffffffffffffffffffffffffff168152602001908152602001600020546001604051808473ffffffffffffffffffffffffffffffffffffffff1673ffffffffffffffffffffffffffffffffffffffff16815260200183815260200182151515158152602001935050505060405180910390a18080600101915050610817565b600860009054906101000a900473ffffffffffffffffffffffffffffffffffffffff1673ffffffffffffffffffffffffffffffffffffffff1663a9059cbb6000809054906101000a900473ffffffffffffffffffffffffffffffffffffffff16600860009054906101000a900473ffffffffffffffffffffffffffffffffffffffff1673ffffffffffffffffffffffffffffffffffffffff166370a08231306040518263ffffffff167c0100000000000000000000000000000000000000000000000000000000028152600401808273ffffffffffffffffffffffffffffffffffffffff1673ffffffffffffffffffffffffffffffffffffffff168152602001915050602060405180830381600087803b1515610c1457600080fd5b5af11515610c2157600080fd5b505050604051805190506040518363ffffffff167c0100000000000000000000000000000000000000000000000000000000028152600401808373ffffffffffffffffffffffffffffffffffffffff1673ffffffffffffffffffffffffffffffffffffffff16815260200182815260200192505050600060405180830381600087803b1515610caf57600080fd5b5af11515610cbc57600080fd5b50505060006002819055505b5b50565b60025481565b600b60019054906101000a900473ffffffffffffffffffffffffffffffffffffffff1681565b60011515600b60009054906101000a900460ff1615151415610d8757600160009054906101000a900473ffffffffffffffffffffffffffffffffffffffff1673ffffffffffffffffffffffffffffffffffffffff163373ffffffffffffffffffffffffffffffffffffffff161415610d86576000600b60006101000a81548160ff0219169083151502179055505b5b565b60045442101515610ee557600160009054906101000a900473ffffffffffffffffffffffffffffffffffffffff1673ffffffffffffffffffffffffffffffffffffffff163373ffffffffffffffffffffffffffffffffffffffff161415610ee4576000809054906101000a900473ffffffffffffffffffffffffffffffffffffffff1673ffffffffffffffffffffffffffffffffffffffff166108fc6003549081150290604051600060405180830381858888f1935050505015610ee3577fe842aea7a5f1b01049d752008c53c52890b1a6daf660cf39e8eec506112bbdf66000809054906101000a900473ffffffffffffffffffffffffffffffffffffffff166003546000604051808473ffffffffffffffffffffffffffffffffffffffff1673ffffffffffffffffffffffffffffffffffffffff16815260200183815260200182151515158152602001935050505060405180910390a15b5b5b565b815481835581811511610f0e57818360005260206000209182019101610f0d9190610f13565b5b505050565b610f3591905b80821115610f31576000816000905550600101610f19565b5090565b905600a165627a7a72305820d0803d24a0573606ba5e7bcd73e87a09ac5ffd4f1a787a5ccebb5ebc878a28440029",
  "source": "pragma solidity ^0.4.13;\r\n\r\nimport './ChozunCoin.sol';\r\n\r\ninterface token {\r\n    function transfer(address receiver, uint amount);\r\n    function balanceOf(address) returns (uint256);\r\n}\r\n\r\ncontract Crowdsale {\r\n    address public beneficiary;\r\n    address master;\r\n    uint public tokenBalance;\r\n    uint public amountRaised;\r\n    uint public deadline;\r\n    uint dollar_exchange;\r\n    uint start_time;\r\n    uint price;\r\n    token public tokenReward;\r\n    mapping(address => uint256) public balanceOf;\r\n    event FundTransfer(address backer, uint amount, bool isContribution);\r\n    address[] public contributors;\r\n    bool public paused;\r\n\r\n    address public contlength;  // Remove\r\n\r\n\r\n    modifier afterDeadline() { if (now >= deadline) _; }\r\n    modifier beforeDeadline() { if (now <= deadline) _; }\r\n    modifier isPaused() { if (paused == true) _; }\r\n    modifier notPaused() { if (paused == false) _; }\r\n    modifier isMaster() { if (msg.sender == master) _; }\r\n    \r\n\r\n    /**\r\n     * Constrctor function\r\n     *\r\n     * Setup the owner\r\n     */\r\n    function Crowdsale(ChozunCoin _token) {\r\n        tokenBalance = 5000000;  \r\n       // beneficiary = 0xe418b86f4be88d5fc42bedab4b1e32591c0b8fe6;   //CHANGE\r\n        beneficiary = 0xC5fdf4076b8F3A5357c5E395ab970B5B54098Fef;   //CHANGE\r\n        start_time = now;\r\n        deadline = start_time + 10 * 1 minutes;     //CHANGE\r\n        dollar_exchange = 280;//CHANGE\r\n        // tokenReward = token(0x345ca3e014aaf5dca488057592ee47305d9b3e10);  //chozun coin address    //CHANGE\r\n        tokenReward = token(_token);  //chozun coin address   \r\n        master =  0xf17f52151EbEF6C7334FAD080c5704D77216b732;\r\n        paused = false;\r\n    }\r\n\r\n    /**\r\n     * Fallback function\r\n    **/\r\n\r\n    function () payable beforeDeadline notPaused {\r\n\r\n        uint amount = msg.value;\r\n        balanceOf[msg.sender] += amount;\r\n        amountRaised += amount;\r\n        price = SafeMath.div(0.35 * 1 ether, dollar_exchange);\r\n        if (amount >= 37.5 ether && amount < 83 ether) {price = SafeMath.div(SafeMath.mul(100, price), 110);}  \r\n        if (amount >= 87.5 ether && amount < 166 ether) {price = SafeMath.div(SafeMath.mul(100, price), 115);} \r\n        if (amount >= 175 ether) {price = SafeMath.div(SafeMath.mul(100, price), 120);}\r\n        tokenBalance = SafeMath.sub(tokenBalance, SafeMath.div(amount, price));\r\n        if (tokenBalance < 0 ) { revert(); }\r\n        // tokenReward.transfer(msg.sender, SafeMath.div(amount * 1 ether, price));\r\n        // FundTransfer(msg.sender, amount, true);\r\n        contributors.push(msg.sender);\r\n        contlength = contributors[0]; // Remove after testing\r\n        // contlength = msg.sender;\r\n        \r\n    }\r\n\r\n    function tokenPayout() afterDeadline isMaster {\r\n\r\n      price = SafeMath.div(0.35 * 1 ether, dollar_exchange);\r\n      for (uint i=0; i<contributors.length; i++) {  \r\n          tokenReward.transfer(contributors[i], SafeMath.div(balanceOf[contributors[i]] * 1 ether, price));\r\n          FundTransfer(contributors[i], balanceOf[contributors[i]], true);\r\n      }\r\n      tokenReward.transfer(beneficiary, tokenReward.balanceOf(this));\r\n      tokenBalance = 0;\r\n\r\n    }\r\n\r\n    function safeWithdrawal() afterDeadline isMaster {\r\n\r\n        if (beneficiary.send(amountRaised)) {\r\n            FundTransfer(beneficiary, amountRaised, false);\r\n        }\r\n    }\r\n\r\n    function pause() notPaused isMaster {\r\n            paused = true;\r\n    }\r\n\r\n    function unPause() isPaused isMaster {\r\n            paused = false;\r\n    }\r\n}\r\n\r\n\r\n",
  "sourcePath": "C:\\Users\\Louis\\Documents\\ethereum_dev\\truffle\\ICO_new\\contracts\\Crowdsale.sol",
  "compiler": {
    "name": "solc",
    "version": "0.4.21+commit.dfe3193c.Emscripten.clang"
  },
  "schemaVersion": "2.0.0",
  "updatedAt": "2018-04-17T04:41:21.914Z"
}