{
  "contractName": "Crowdsale",
  "abi": [
    {
      "constant": true,
      "inputs": [],
      "name": "deadline",
      "outputs": [
        {
          "name": "",
          "type": "uint256"
        }
      ],
      "payable": false,
      "stateMutability": "view",
      "type": "function"
    },
    {
      "constant": true,
      "inputs": [],
      "name": "beneficiary",
      "outputs": [
        {
          "name": "",
          "type": "address"
        }
      ],
      "payable": false,
      "stateMutability": "view",
      "type": "function"
    },
    {
      "constant": true,
      "inputs": [
        {
          "name": "",
          "type": "uint256"
        }
      ],
      "name": "contributors",
      "outputs": [
        {
          "name": "",
          "type": "address"
        }
      ],
      "payable": false,
      "stateMutability": "view",
      "type": "function"
    },
    {
      "constant": true,
      "inputs": [],
      "name": "offChainTokens",
      "outputs": [
        {
          "name": "",
          "type": "int256"
        }
      ],
      "payable": false,
      "stateMutability": "view",
      "type": "function"
    },
    {
      "constant": true,
      "inputs": [],
      "name": "paused",
      "outputs": [
        {
          "name": "",
          "type": "bool"
        }
      ],
      "payable": false,
      "stateMutability": "view",
      "type": "function"
    },
    {
      "constant": true,
      "inputs": [],
      "name": "tokenReward",
      "outputs": [
        {
          "name": "",
          "type": "address"
        }
      ],
      "payable": false,
      "stateMutability": "view",
      "type": "function"
    },
    {
      "constant": true,
      "inputs": [
        {
          "name": "",
          "type": "address"
        }
      ],
      "name": "balanceOf",
      "outputs": [
        {
          "name": "",
          "type": "uint256"
        }
      ],
      "payable": false,
      "stateMutability": "view",
      "type": "function"
    },
    {
      "constant": true,
      "inputs": [],
      "name": "amountRaised",
      "outputs": [
        {
          "name": "",
          "type": "uint256"
        }
      ],
      "payable": false,
      "stateMutability": "view",
      "type": "function"
    },
    {
      "constant": true,
      "inputs": [],
      "name": "dollarRate",
      "outputs": [
        {
          "name": "",
          "type": "uint256"
        }
      ],
      "payable": false,
      "stateMutability": "view",
      "type": "function"
    },
    {
      "constant": true,
      "inputs": [],
      "name": "tokenBalance",
      "outputs": [
        {
          "name": "",
          "type": "uint256"
        }
      ],
      "payable": false,
      "stateMutability": "view",
      "type": "function"
    },
    {
      "inputs": [
        {
          "name": "_token",
          "type": "address"
        }
      ],
      "payable": false,
      "stateMutability": "nonpayable",
      "type": "constructor"
    },
    {
      "payable": true,
      "stateMutability": "payable",
      "type": "fallback"
    },
    {
      "anonymous": false,
      "inputs": [
        {
          "indexed": false,
          "name": "backer",
          "type": "address"
        },
        {
          "indexed": false,
          "name": "amount",
          "type": "uint256"
        },
        {
          "indexed": false,
          "name": "isContribution",
          "type": "bool"
        }
      ],
      "name": "FundTransfer",
      "type": "event"
    },
    {
      "constant": false,
      "inputs": [],
      "name": "tokenPayout",
      "outputs": [],
      "payable": false,
      "stateMutability": "nonpayable",
      "type": "function"
    },
    {
      "constant": false,
      "inputs": [],
      "name": "safeWithdrawal",
      "outputs": [],
      "payable": false,
      "stateMutability": "nonpayable",
      "type": "function"
    },
    {
      "constant": false,
      "inputs": [],
      "name": "pause",
      "outputs": [],
      "payable": false,
      "stateMutability": "nonpayable",
      "type": "function"
    },
    {
      "constant": false,
      "inputs": [],
      "name": "unPause",
      "outputs": [],
      "payable": false,
      "stateMutability": "nonpayable",
      "type": "function"
    },
    {
      "constant": false,
      "inputs": [
        {
          "name": "_dollarRate",
          "type": "uint256"
        }
      ],
      "name": "updateDollarRate",
      "outputs": [],
      "payable": false,
      "stateMutability": "nonpayable",
      "type": "function"
    },
    {
      "constant": false,
      "inputs": [
        {
          "name": "_offChainTokens",
          "type": "int256"
        }
      ],
      "name": "updateOffChainTokens",
      "outputs": [],
      "payable": false,
      "stateMutability": "nonpayable",
      "type": "function"
    }
  ],
  "bytecode": "0x6060604052341561000f57600080fd5b6040516020806110c3833981016040528080519060200190919050506a0422ca8b0a00a4250000006003819055506000600781905550735dffcb745205962c70957cfa43f4cc045328a0936000806101000a81548173ffffffffffffffffffffffffffffffffffffffff021916908373ffffffffffffffffffffffffffffffffffffffff160217905550738398e9d9651d2695d3622f9e1266e3901ba3c1dd600160006101000a81548173ffffffffffffffffffffffffffffffffffffffff021916908373ffffffffffffffffffffffffffffffffffffffff160217905550738398e9d9651d2695d3622f9e1266e3901ba3c1dd600260006101000a81548173ffffffffffffffffffffffffffffffffffffffff021916908373ffffffffffffffffffffffffffffffffffffffff160217905550426008819055506146506008540160058190555061011860068190555080600a60006101000a81548173ffffffffffffffffffffffffffffffffffffffff021916908373ffffffffffffffffffffffffffffffffffffffff1602179055506000600d60006101000a81548160ff02191690831515021790555050610ef7806101cc6000396000f3006060604052600436106100e6576000357c0100000000000000000000000000000000000000000000000000000000900463ffffffff16806329dcb0cf1461034257806338af3eed1461036b5780633cb5d100146103c05780634a5fca4f146104235780635c975abb1461044c5780636e66f6e91461047957806370a08231146104ce5780637b3e5e7b1461051b5780637c7478a6146105445780638456cb591461056d57806387b551b5146105825780639e1a4d1914610597578063d7708424146105c0578063e311932b146105e3578063f7b188a514610606578063fd6b7ef81461061b575b60006005544211151561033f5760001515600d60009054906101000a900460ff161515141561033e57349050806004600082825401925050819055506101366704db732547630000600654610630565b6009819055506802086ac35105260000811015801561015d575068047fdb3c3f456c000081105b1561018057610179610172606460095461064b565b606e610630565b6009819055505b6804be4e7267b6ae000081101580156101a157506808ffb6787e8ad8000081105b156101c4576101bd6101b6606460095461064b565b6073610630565b6009819055505b68097c9ce4cf6d5c0000811015156101f4576101ed6101e6606460095461064b565b6078610630565b6009819055505b610215600354610210670de0b6b3a76400008402600954610630565b61067e565b600381905550600060075460035403121561022f57600080fd5b6000600b60003373ffffffffffffffffffffffffffffffffffffffff1673ffffffffffffffffffffffffffffffffffffffff1681526020019081526020016000205414156102db57600c805480600101828161028b9190610e7a565b9160005260206000209001600033909190916101000a81548173ffffffffffffffffffffffffffffffffffffffff021916908373ffffffffffffffffffffffffffffffffffffffff160217905550505b6102f1670de0b6b3a76400003402600954610630565b600b60003373ffffffffffffffffffffffffffffffffffffffff1673ffffffffffffffffffffffffffffffffffffffff168152602001908152602001600020600082825401925050819055505b5b50005b341561034d57600080fd5b610355610697565b6040518082815260200191505060405180910390f35b341561037657600080fd5b61037e61069d565b604051808273ffffffffffffffffffffffffffffffffffffffff1673ffffffffffffffffffffffffffffffffffffffff16815260200191505060405180910390f35b34156103cb57600080fd5b6103e160048080359060200190919050506106c2565b604051808273ffffffffffffffffffffffffffffffffffffffff1673ffffffffffffffffffffffffffffffffffffffff16815260200191505060405180910390f35b341561042e57600080fd5b610436610701565b6040518082815260200191505060405180910390f35b341561045757600080fd5b61045f610707565b604051808215151515815260200191505060405180910390f35b341561048457600080fd5b61048c61071a565b604051808273ffffffffffffffffffffffffffffffffffffffff1673ffffffffffffffffffffffffffffffffffffffff16815260200191505060405180910390f35b34156104d957600080fd5b610505600480803573ffffffffffffffffffffffffffffffffffffffff16906020019091905050610740565b6040518082815260200191505060405180910390f35b341561052657600080fd5b61052e610758565b6040518082815260200191505060405180910390f35b341561054f57600080fd5b61055761075e565b6040518082815260200191505060405180910390f35b341561057857600080fd5b610580610764565b005b341561058d57600080fd5b6105956107f5565b005b34156105a257600080fd5b6105aa610bc6565b6040518082815260200191505060405180910390f35b34156105cb57600080fd5b6105e16004808035906020019091905050610bcc565b005b34156105ee57600080fd5b6106046004808035906020019091905050610c2d565b005b341561061157600080fd5b610619610c97565b005b341561062657600080fd5b61062e610d28565b005b600080828481151561063e57fe5b0490508091505092915050565b6000808284029050600084148061066c575082848281151561066957fe5b04145b151561067457fe5b8091505092915050565b600082821115151561068c57fe5b818303905092915050565b60055481565b6000809054906101000a900473ffffffffffffffffffffffffffffffffffffffff1681565b600c818154811015156106d157fe5b90600052602060002090016000915054906101000a900473ffffffffffffffffffffffffffffffffffffffff1681565b60075481565b600d60009054906101000a900460ff1681565b600a60009054906101000a900473ffffffffffffffffffffffffffffffffffffffff1681565b600b6020528060005260406000206000915090505481565b60045481565b60065481565b60001515600d60009054906101000a900460ff16151514156107f357600160009054906101000a900473ffffffffffffffffffffffffffffffffffffffff1673ffffffffffffffffffffffffffffffffffffffff163373ffffffffffffffffffffffffffffffffffffffff1614156107f2576001600d60006101000a81548160ff0219169083151502179055505b5b565b6000600160009054906101000a900473ffffffffffffffffffffffffffffffffffffffff1673ffffffffffffffffffffffffffffffffffffffff163373ffffffffffffffffffffffffffffffffffffffff161415610bc357600090505b600c805490508110156109f357600a60009054906101000a900473ffffffffffffffffffffffffffffffffffffffff1673ffffffffffffffffffffffffffffffffffffffff1663a9059cbb600c838154811015156108ac57fe5b906000526020600020900160009054906101000a900473ffffffffffffffffffffffffffffffffffffffff16600b6000600c868154811015156108eb57fe5b906000526020600020900160009054906101000a900473ffffffffffffffffffffffffffffffffffffffff1673ffffffffffffffffffffffffffffffffffffffff1673ffffffffffffffffffffffffffffffffffffffff168152602001908152602001600020546040518363ffffffff167c0100000000000000000000000000000000000000000000000000000000028152600401808373ffffffffffffffffffffffffffffffffffffffff1673ffffffffffffffffffffffffffffffffffffffff16815260200182815260200192505050600060405180830381600087803b15156109d657600080fd5b5af115156109e357600080fd5b5050508080600101915050610852565b600a60009054906101000a900473ffffffffffffffffffffffffffffffffffffffff1673ffffffffffffffffffffffffffffffffffffffff1663a9059cbb6000809054906101000a900473ffffffffffffffffffffffffffffffffffffffff16600a60009054906101000a900473ffffffffffffffffffffffffffffffffffffffff1673ffffffffffffffffffffffffffffffffffffffff166370a08231306040518263ffffffff167c0100000000000000000000000000000000000000000000000000000000028152600401808273ffffffffffffffffffffffffffffffffffffffff1673ffffffffffffffffffffffffffffffffffffffff168152602001915050602060405180830381600087803b1515610b0f57600080fd5b5af11515610b1c57600080fd5b505050604051805190506040518363ffffffff167c0100000000000000000000000000000000000000000000000000000000028152600401808373ffffffffffffffffffffffffffffffffffffffff1673ffffffffffffffffffffffffffffffffffffffff16815260200182815260200192505050600060405180830381600087803b1515610baa57600080fd5b5af11515610bb757600080fd5b50505060006003819055505b50565b60035481565b600260009054906101000a900473ffffffffffffffffffffffffffffffffffffffff1673ffffffffffffffffffffffffffffffffffffffff163373ffffffffffffffffffffffffffffffffffffffff161415610c2a57806006819055505b50565b600260009054906101000a900473ffffffffffffffffffffffffffffffffffffffff1673ffffffffffffffffffffffffffffffffffffffff163373ffffffffffffffffffffffffffffffffffffffff161415610c9457806007600082825401925050819055505b50565b60011515600d60009054906101000a900460ff1615151415610d2657600160009054906101000a900473ffffffffffffffffffffffffffffffffffffffff1673ffffffffffffffffffffffffffffffffffffffff163373ffffffffffffffffffffffffffffffffffffffff161415610d25576000600d60006101000a81548160ff0219169083151502179055505b5b565b600160009054906101000a900473ffffffffffffffffffffffffffffffffffffffff1673ffffffffffffffffffffffffffffffffffffffff163373ffffffffffffffffffffffffffffffffffffffff161415610e78576000809054906101000a900473ffffffffffffffffffffffffffffffffffffffff1673ffffffffffffffffffffffffffffffffffffffff166108fc6004549081150290604051600060405180830381858888f1935050505015610e77577fe842aea7a5f1b01049d752008c53c52890b1a6daf660cf39e8eec506112bbdf66000809054906101000a900473ffffffffffffffffffffffffffffffffffffffff166004546000604051808473ffffffffffffffffffffffffffffffffffffffff1673ffffffffffffffffffffffffffffffffffffffff16815260200183815260200182151515158152602001935050505060405180910390a15b5b565b815481835581811511610ea157818360005260206000209182019101610ea09190610ea6565b5b505050565b610ec891905b80821115610ec4576000816000905550600101610eac565b5090565b905600a165627a7a7230582060ee4d6e34bfef2c9f2613ba49504093427a26458f73e44da323ed7b79270d100029",
  "source": "pragma solidity ^0.4.13;\r\n\r\nimport './ChozunCoin.sol';\r\n\r\ninterface token {\r\n    function transfer(address receiver, uint amount);\r\n    function balanceOf(address) returns (uint256);\r\n}\r\n\r\ncontract Crowdsale {\r\n    address public beneficiary;\r\n    address master;\r\n    address backendMaster;\r\n    uint public tokenBalance;\r\n    uint public amountRaised;\r\n    uint public deadline;\r\n    uint public dollarRate;\r\n    int public offChainTokens;\r\n    uint start_time;\r\n    uint price;\r\n    token public tokenReward;\r\n    mapping(address => uint256) public balanceOf;\r\n    event FundTransfer(address backer, uint amount, bool isContribution);\r\n    address[] public contributors;\r\n    bool public paused;\r\n\r\n\r\n    /**\r\n     * Constrctor function\r\n     *\r\n     * Setup the owner\r\n     */\r\n    function Crowdsale(ChozunCoin _token) {\r\n        tokenBalance = 5000000 * 1 ether;  \r\n        offChainTokens = 0;\r\n       // beneficiary = 0xe418b86f4be88d5fc42bedab4b1e32591c0b8fe6;   //CHANGE\r\n        beneficiary = 0x5dffcB745205962c70957cfa43f4CC045328a093;   //CHANGE\r\n        master = 0x8398e9D9651d2695D3622F9E1266E3901Ba3C1DD;\r\n        backendMaster = 0x8398e9D9651d2695D3622F9E1266E3901Ba3C1DD;\r\n        start_time = now;\r\n        deadline = start_time + 300 * 1 minutes;     //CHANGE\r\n        dollarRate = 280;//CHANGE\r\n        // tokenReward = token(0x345ca3e014aaf5dca488057592ee47305d9b3e10);  //chozun coin address    //CHANGE\r\n        tokenReward = token(_token);  //chozun coin address   \r\n        paused = false;\r\n    }\r\n\r\n\r\n    modifier afterDeadline() { if (now >= deadline) _; }\r\n    modifier beforeDeadline() { if (now <= deadline) _; }\r\n    modifier isPaused() { if (paused == true) _; }\r\n    modifier notPaused() { if (paused == false) _; }\r\n    modifier isMaster() { if (msg.sender == master) _; }\r\n    modifier isBackendMaster() { if (msg.sender == backendMaster) _; }\r\n    \r\n\r\n    /**\r\n     * Fallback function\r\n    **/\r\n\r\n    function () payable beforeDeadline notPaused {\r\n\r\n        uint amount = msg.value;\r\n        amountRaised += amount;\r\n        price = SafeMath.div(0.35 * 1 ether, dollarRate);\r\n        if (amount >= 37.5 ether && amount < 83 ether) {price = SafeMath.div(SafeMath.mul(100, price), 110);}  \r\n        if (amount >= 87.5 ether && amount < 166 ether) {price = SafeMath.div(SafeMath.mul(100, price), 115);} \r\n        if (amount >= 175 ether) {price = SafeMath.div(SafeMath.mul(100, price), 120);}\r\n        // THIS IS OLD VERSION WHEN INITIAK TOKEN BALANCE IS 5000000, used to try and get rid of no decimal problem. tokenBalance = SafeMath.sub(tokenBalance, SafeMath.div(amount, price)); \r\n        tokenBalance = SafeMath.sub(tokenBalance, SafeMath.div(amount * 1 ether, price));\r\n        if (int(tokenBalance) - offChainTokens < 0 ) { revert(); }\r\n        if (balanceOf[msg.sender] == 0) {\r\n          contributors.push(msg.sender);\r\n        }\r\n        // balanceOf[msg.sender] += amount;     // Stores ether amount\r\n        balanceOf[msg.sender] += SafeMath.div(msg.value * 1 ether, price);        // Stores token amount\r\n        // balanceOf[msg.sender] += SafeMath.div(msg.value, price);        // Stores token amount\r\n       \r\n    }\r\n\r\n    // function tokenPayout() afterDeadline isMaster {\r\n    function tokenPayout() isMaster {\r\n\r\n     for (uint i=0; i<contributors.length; i++) {  \r\n          tokenReward.transfer(contributors[i], balanceOf[contributors[i]]);\r\n          // FundTransfer(contributors[i], balanceOf[contributors[i]], true);\r\n     }\r\n      tokenReward.transfer(beneficiary, tokenReward.balanceOf(this));\r\n      tokenBalance = 0;\r\n\r\n    }\r\n\r\n    // function safeWithdrawal() afterDeadline isMaster {\r\n    function safeWithdrawal() isMaster {\r\n\r\n      if (beneficiary.send(amountRaised)) {\r\n          FundTransfer(beneficiary, amountRaised, false);\r\n      }\r\n    }\r\n\r\n    function pause() notPaused isMaster {\r\n      paused = true;\r\n    }\r\n\r\n    function unPause() isPaused isMaster {\r\n      paused = false;\r\n    }\r\n\r\n    function updateDollarRate(uint _dollarRate) isBackendMaster {\r\n         dollarRate = _dollarRate;\r\n    }\r\n\r\n    function updateOffChainTokens(int _offChainTokens) isBackendMaster {\r\n        offChainTokens += _offChainTokens;\r\n    }\r\n}\r\n\r\n\r\n",
  "sourcePath": "C:\\Users\\Louis\\Documents\\ethereum_dev\\truffle\\ICO_new\\contracts\\Crowdsale.sol",
  "compiler": {
    "name": "solc",
    "version": "0.4.21+commit.dfe3193c.Emscripten.clang"
  },
  "schemaVersion": "2.0.0",
  "updatedAt": "2018-05-07T05:05:19.385Z"
}